{"contracts/AdviceLog.sol":{"AdviceLog":{"abi":[{"anonymous":false,"inputs":[{"indexed":true,"internalType":"bytes32","name":"inputHash","type":"bytes32"},{"indexed":true,"internalType":"bytes32","name":"outputHash","type":"bytes32"},{"indexed":false,"internalType":"string","name":"modelVersion","type":"string"},{"indexed":false,"internalType":"string","name":"persona","type":"string"},{"indexed":true,"internalType":"bytes32","name":"customerHash","type":"bytes32"},{"indexed":false,"internalType":"bytes32","name":"sessionHash","type":"bytes32"},{"indexed":false,"internalType":"string","name":"stage","type":"string"},{"indexed":false,"internalType":"uint256","name":"blockTime","type":"uint256"},{"indexed":false,"internalType":"bytes32","name":"nonce","type":"bytes32"}],"name":"AdviceRecorded","type":"event"},{"inputs":[{"internalType":"bytes32","name":"inputHash","type":"bytes32"},{"internalType":"bytes32","name":"outputHash","type":"bytes32"},{"internalType":"string","name":"modelVersion","type":"string"},{"internalType":"string","name":"persona","type":"string"},{"internalType":"bytes32","name":"customerHash","type":"bytes32"},{"internalType":"bytes32","name":"sessionHash","type":"bytes32"},{"internalType":"string","name":"stage","type":"string"},{"internalType":"bytes32","name":"nonce","type":"bytes32"}],"name":"recordAdvice","outputs":[],"stateMutability":"nonpayable","type":"function"}],"evm":{"bytecode":{"linkReferences":{},"object":"608060405234801561001057600080fd5b50610270806100206000396000f3fe608060405234801561001057600080fd5b506004361061002b5760003560e01c80638d3d52bd14610030575b600080fd5b61004361003e3660046100e5565b610045565b005b848a8c7f0d55d88036abc009c389ccb8df82f28980ca4a77887701ee5614824678a23bf78c8c8c8c8b8b8b428c604051610087999897969594939291906101df565b60405180910390a45050505050505050505050565b60008083601f8401126100ae57600080fd5b50813567ffffffffffffffff8111156100c657600080fd5b6020830191508360208285010111156100de57600080fd5b9250929050565b60008060008060008060008060008060006101008c8e03121561010757600080fd5b8b359a5060208c0135995067ffffffffffffffff8060408e0135111561012c57600080fd5b61013c8e60408f01358f0161009c565b909a50985060608d013581101561015257600080fd5b6101628e60608f01358f0161009c565b909850965060808d0135955060a08d0135945060c08d013581101561018657600080fd5b506101978d60c08e01358e0161009c565b819450809350505060e08c013590509295989b509295989b9093969950565b81835281816020850137506000828201602090810191909152601f909101601f19169091010190565b60c0815260006101f360c083018b8d6101b6565b8281036020840152610206818a8c6101b6565b905087604084015282810360608401526102218187896101b6565b6080840195909552505060a0015297965050505050505056fea264697066735822122068caa897daa85712d3079a7f75f72a325ee3d222b9afedf3c3eccdb361cf607b64736f6c63430008180033","opcodes":"PUSH1 0x80 PUSH1 0x40 MSTORE CALLVALUE DUP1 ISZERO PUSH2 0x10 JUMPI PUSH1 0x0 DUP1 REVERT JUMPDEST POP PUSH2 0x270 DUP1 PUSH2 0x20 PUSH1 0x0 CODECOPY PUSH1 0x0 RETURN INVALID PUSH1 0x80 PUSH1 0x40 MSTORE CALLVALUE DUP1 ISZERO PUSH2 0x10 JUMPI PUSH1 0x0 DUP1 REVERT JUMPDEST POP PUSH1 0x4 CALLDATASIZE LT PUSH2 0x2B JUMPI PUSH1 0x0 CALLDATALOAD PUSH1 0xE0 SHR DUP1 PUSH4 0x8D3D52BD EQ PUSH2 0x30 JUMPI JUMPDEST PUSH1 0x0 DUP1 REVERT JUMPDEST PUSH2 0x43 PUSH2 0x3E CALLDATASIZE PUSH1 0x4 PUSH2 0xE5 JUMP JUMPDEST PUSH2 0x45 JUMP JUMPDEST STOP JUMPDEST DUP5 DUP11 DUP13 PUSH32 0xD55D88036ABC009C389CCB8DF82F28980CA4A77887701EE5614824678A23BF7 DUP13 DUP13 DUP13 DUP13 DUP12 DUP12 DUP12 TIMESTAMP DUP13 PUSH1 0x40 MLOAD PUSH2 0x87 SWAP10 SWAP9 SWAP8 SWAP7 SWAP6 SWAP5 SWAP4 SWAP3 SWAP2 SWAP1 PUSH2 0x1DF JUMP JUMPDEST PUSH1 0x40 MLOAD DUP1 SWAP2 SUB SWAP1 LOG4 POP POP POP POP POP POP POP POP POP POP POP JUMP JUMPDEST PUSH1 0x0 DUP1 DUP4 PUSH1 0x1F DUP5 ADD SLT PUSH2 0xAE JUMPI PUSH1 0x0 DUP1 REVERT JUMPDEST POP DUP2 CALLDATALOAD PUSH8 0xFFFFFFFFFFFFFFFF DUP2 GT ISZERO PUSH2 0xC6 JUMPI PUSH1 0x0 DUP1 REVERT JUMPDEST PUSH1 0x20 DUP4 ADD SWAP2 POP DUP4 PUSH1 0x20 DUP3 DUP6 ADD ADD GT ISZERO PUSH2 0xDE JUMPI PUSH1 0x0 DUP1 REVERT JUMPDEST SWAP3 POP SWAP3 SWAP1 POP JUMP JUMPDEST PUSH1 0x0 DUP1 PUSH1 0x0 DUP1 PUSH1 0x0 DUP1 PUSH1 0x0 DUP1 PUSH1 0x0 DUP1 PUSH1 0x0 PUSH2 0x100 DUP13 DUP15 SUB SLT ISZERO PUSH2 0x107 JUMPI PUSH1 0x0 DUP1 REVERT JUMPDEST DUP12 CALLDATALOAD SWAP11 POP PUSH1 0x20 DUP13 ADD CALLDATALOAD SWAP10 POP PUSH8 0xFFFFFFFFFFFFFFFF DUP1 PUSH1 0x40 DUP15 ADD CALLDATALOAD GT ISZERO PUSH2 0x12C JUMPI PUSH1 0x0 DUP1 REVERT JUMPDEST PUSH2 0x13C DUP15 PUSH1 0x40 DUP16 ADD CALLDATALOAD DUP16 ADD PUSH2 0x9C JUMP JUMPDEST SWAP1 SWAP11 POP SWAP9 POP PUSH1 0x60 DUP14 ADD CALLDATALOAD DUP2 LT ISZERO PUSH2 0x152 JUMPI PUSH1 0x0 DUP1 REVERT JUMPDEST PUSH2 0x162 DUP15 PUSH1 0x60 DUP16 ADD CALLDATALOAD DUP16 ADD PUSH2 0x9C JUMP JUMPDEST SWAP1 SWAP9 POP SWAP7 POP PUSH1 0x80 DUP14 ADD CALLDATALOAD SWAP6 POP PUSH1 0xA0 DUP14 ADD CALLDATALOAD SWAP5 POP PUSH1 0xC0 DUP14 ADD CALLDATALOAD DUP2 LT ISZERO PUSH2 0x186 JUMPI PUSH1 0x0 DUP1 REVERT JUMPDEST POP PUSH2 0x197 DUP14 PUSH1 0xC0 DUP15 ADD CALLDATALOAD DUP15 ADD PUSH2 0x9C JUMP JUMPDEST DUP2 SWAP5 POP DUP1 SWAP4 POP POP POP PUSH1 0xE0 DUP13 ADD CALLDATALOAD SWAP1 POP SWAP3 SWAP6 SWAP9 SWAP12 POP SWAP3 SWAP6 SWAP9 SWAP12 SWAP1 SWAP4 SWAP7 SWAP10 POP JUMP JUMPDEST DUP2 DUP4 MSTORE DUP2 DUP2 PUSH1 0x20 DUP6 ADD CALLDATACOPY POP PUSH1 0x0 DUP3 DUP3 ADD PUSH1 0x20 SWAP1 DUP2 ADD SWAP2 SWAP1 SWAP2 MSTORE PUSH1 0x1F SWAP1 SWAP2 ADD PUSH1 0x1F NOT AND SWAP1 SWAP2 ADD ADD SWAP1 JUMP JUMPDEST PUSH1 0xC0 DUP2 MSTORE PUSH1 0x0 PUSH2 0x1F3 PUSH1 0xC0 DUP4 ADD DUP12 DUP14 PUSH2 0x1B6 JUMP JUMPDEST DUP3 DUP2 SUB PUSH1 0x20 DUP5 ADD MSTORE PUSH2 0x206 DUP2 DUP11 DUP13 PUSH2 0x1B6 JUMP JUMPDEST SWAP1 POP DUP8 PUSH1 0x40 DUP5 ADD MSTORE DUP3 DUP2 SUB PUSH1 0x60 DUP5 ADD MSTORE PUSH2 0x221 DUP2 DUP8 DUP10 PUSH2 0x1B6 JUMP JUMPDEST PUSH1 0x80 DUP5 ADD SWAP6 SWAP1 SWAP6 MSTORE POP POP PUSH1 0xA0 ADD MSTORE SWAP8 SWAP7 POP POP POP POP POP POP POP JUMP INVALID LOG2 PUSH5 0x6970667358 0x22 SLT KECCAK256 PUSH9 0xCAA897DAA85712D307 SWAP11 PUSH32 0x75F72A325EE3D222B9AFEDF3C3ECCDB361CF607B64736F6C6343000818003300 "},"methodIdentifiers":{"recordAdvice(bytes32,bytes32,string,string,bytes32,bytes32,string,bytes32)":"8d3d52bd"}}}}}